:020000040800F2
:10000000A80B002041020008FD1E0008231700086D
:10001000F91E000825150008EF2B0008000000005D
:100020000000000000000000000000004D27000854
:10003000E515000800000000932500084F2900087E
:100040005B0200085B0200085B0200085B0200081C
:100050005B0200085B0200085B0200085B0200080C
:100060005B0200085B0200085B0200085B020008FC
:100070005B0200085B0200085B0200085B020008EC
:100080005B0200085B0200085B0200085B020008DC
:100090005B0200085B0200085B0200085B020008CC
:1000A0005B0200085B0200085B0200085B020008BC
:1000B000F92900085B0200085B0200085B020008E7
:1000C0005B0200085B0200085B0200085B0200089C
:1000D0005B020008092B00085B0200085B020008B5
:1000E0005B0200085B0200085B0200085B0200087C
:1000F0005B0200085B0200085B0200085B0200086C
:100100005B0200085B0200085B0200085B0200085B
:100110005B0200085B0200085B0200085B0200084B
:100120005B0200085B0200085B0200085B0200083B
:100130005B0200085B0200085B0200085B0200082B
:100140005B0200085B0200085B0200085B0200081B
:100150005B0200085B0200085B0200085B0200080B
:100160005B0200085B0200085B0200085B020008FB
:100170005B0200085B0200085B0200085B020008EB
:100180005B0200085B02000800F002F800F049F88A
:100190000AA090E8000C82448344AAF10107DA45E2
:1001A00001D100F03EF8AFF2090EBAE80F0013F0EB
:1001B000010F18BFFB1A43F001031847685E0000E7
:1001C000885E0000103A24BF78C878C1FAD8520778
:1001D00024BF30C830C144BF04680C6070470000C1
:1001E0000023002400250026103A28BF78C1FBD840
:1001F000520728BF30C148BF0B607047662904F022
:100200001087002070471FB504F001FF00F050FB7D
:1002100004000020002104F04BF9E0601FBD10B580
:1002200010BD00F049FC1146FFF7EDFF03F07EFD25
:1002300000F067FC03B4FFF7F2FF03BC03F0A7FA7A
:100240000948804709480047FEE7FEE7FEE7FEE76A
:10025000FEE7FEE7FEE7FEE7FEE7FEE704480549A6
:10026000054A064B70470000512900088901000823
:10027000A8050020A80B0020A8070020A807002040
:10028000704700000FB41CB5084B06AA7B446946B2
:100290000090059800F0F3FA04460020694600F04B
:1002A00001FB20461CBC5DF814FB00001506000095
:1002B00070B5044685690068C10601D5302600E0A6
:1002C0002026C00707D070BDD4E9012130469047F1
:1002D000206A401C20626D1EF6D570BD70B50446C4
:1002E00085690078C00707D170BDD4E901212020BD
:1002F0009047206A401C20626D1EF6D570BD00003C
:100300002DE9F05F894604464FF0000ADFF824B17A
:10031000FB44C0F820A02046E168884700287DD033
:10032000252806D0D4E901219047206A401C20628C
:10033000F1E700255F462046E16888472028064609
:1003400007DB312E05D2B81910F8200C08B105438F
:10035000F1E7A80701D525F00405C4F81CA0002783
:10036000C4F818A02A2E09D0304603F009FA38B391
:1003700004EB8708303EC8F8186019E059F8041BF0
:10038000204604EB87029161E1688847012F064609
:1003900018D1E069002820DA25F020051DE0D8F802
:1003A000180000EB800006EB40003038C8F8180059
:1003B0002046E1688847064603F0E2F90028EED1BE
:1003C000012F0AD02E2E08D12046E16888477F1CD5
:1003D0000646022F45F02005C4DBA069002803DA99
:1003E000404245F00105A061E80701D025F0100565
:1003F000A6B1A6F14100192802D8203645F40065BF
:100400004A463146204625604D46FFF7F7FE60B16B
:10041000012807D0ED1D25F0070000E007E000F1FE
:10042000080978E705F1040975E730467AE7206A9C
:10043000BDE8F09F745B00007047704770477047DD
:1004400010B500F039FA006810BD10B5044600F090
:1004500033FA046010BD70472DE9FF4F0C461E466D
:100460004FF0FF378BB0D2E90001DDF860800A90D1
:100470008A46C1F30A5505B93D46002108464FF0AA
:100480000000BAF1000F00F4400005DA00EB800034
:100490004FF4400101EA50004FEA9059B9F1010FC1
:1004A00000DDB9460A9850EA4A000ED044F61050D2
:1004B000A5F2FF3545432F14B8F1000F1ED0754249
:1004C000291E1EDDC9F100021CE0B8F1010F4FF03A
:1004D000000001D0302103E0F24305E02154401C2C
:1004E000B042FBDB30460022002121540B99C1F8B9
:1004F0000880C1E900200FB0BDE8F08FBD1B6D1C66
:10050000DEE74A4600DA694206A800F05FFA06AB69
:1005100093E8070003AB83E8070050460A9900F010
:1005200039FB8DE80700A0F500501F3800900398B4
:10053000002D0ADD42F21F014A460844002303A9A8
:100540000390684600F0A2FD09E0A0F500504A467D
:100550001F38002303A90390684600F0ACFD8DE826
:1005600007000004000C03D04FF0FF30410800E00A
:100570001046B8F1000F03D00022009215461EE08D
:10058000751E05D400F09CF9303262556D1EF9D508
:10059000B3460122084302D000227F1C04E02078E9
:1005A000302801D100227F1E002A099784D01DE047
:1005B000112D07DA00F084F9303262556D1C50EAD3
:1005C0000102F5D1084302D00098C8B10EE0002125
:1005D000681E05E0235C625C63542254401E491C83
:1005E0008142F7DBAB46A81B401E0990002004F8AF
:1005F0000B000B98099AC0F80880C0E9002B7AE735
:1006000011264FF0000857E72DE9F04F88460446C1
:10061000D21D22F0070191B0D1E90001CDE90A0114
:1006200002F0CFFB02460B98C00F01D02D2007E04F
:100630002068810701D52B2002E0202101EAC000BB
:10064000032A099001D0072A05DB034641462046CC
:1006500000F07CF90BE12078800601D5E06900E02C
:100660000620B8F1650F814606D0B8F1660F18D0A4
:10067000B8F1670F70D131E00020B9F1110F00908F
:1006800001DB112301E009F101030AAA01A90CA869
:10069000FFF7E2FEDDE90C70002609F10105834653
:1006A00047E001204B4600904FF000470AAA01A9FD
:1006B0000CA8FFF7D1FEDDE90DB00C995D460026D0
:1006C00010B909F101000D18B9EB050003D4C0F110
:1006D000FF3609F10105A5EB09002BE0B9F1010F87
:1006E00001DA4FF001090020B9F1110F00904846DE
:1006F00001DD112300E003460AAA01A90CA8FFF7B7
:10070000ABFEDDE90C704D460026834620780007DD
:100710000AD4AB4500DA5D4601A8012D04DD41197C
:1007200011F8011C302907D04F4502DA17F1040FE8
:1007300004DA012082460FE06D1EEEE7002F02DC96
:10074000ED1B3E4403E0781CA84200DD7D1CB81B75
:1007500000F1010A4FF000472078000703D4AA45B2
:1007600001DB4FF0FF3A0021B7F1004F0DF14308D4
:100770008DF8431024D002202B23002F01DA7F4272
:100780002D230A21021EA0F1010000DC5FB197FBBE
:10079000F1FC97FBF1F201FB1C7C17460CF1300CCD
:1007A00008F801CDEEE7A8F10100037021880905E2
:1007B00001D5452100E06521A0F1010800F8011CE8
:1007C00009980FA9A1EB0807FF1D00B101204119ED
:1007D00001EBEA70A1693844081A401EA061207834
:1007E000C00602D42046FFF763FD099828B1D4E97A
:1007F00001219047206A401C20622078C00622D543
:100800002046FFF755FD1EE0002E04DBB34502DD58
:1008100001A8805D00E03020D4E901219047206AE2
:10082000401C2062761CAAF101005FEA000A0AD18E
:1008300000F03EF8C0680168405CD4E901219047AF
:10084000206A401C2062281EA5F10105DCDC07E0BF
:10085000D4E9012118F8010B9047206A401C20625E
:10086000381EA7F10107F3DC2046FFF737FD032010
:1008700011B041E601694A1C02610878704700B571
:100880008FB0CDE901310021059105497944CDE9C9
:10089000031011466846FFF733FD0FB000BD00009E
:1008A000E5FFFFFF0A6802F8010B0A6070470000CD
:1008B0000048704764050020004870474405002048
:1008C00030B5B0F10A024FEA900E71F100034EEA22
:1008D000817EB0EB0E0061EB91014FEA101E4EEAF3
:1008E000017E10EB0E0041EB11114FEA102E4EEA83
:1008F000016E10EB0E0041EB11214FEA104E4EEA53
:10090000014E10EB0E0041EB1141401841F1000186
:100910004FEAD00040EA41704FEAD10110EB800568
:100920004FEA810444EA907444EB01046D1944EBEE
:100930000404521BA3414FF0000348BF0A3200D504
:1009400030BD401C41F1000130BD00002DE9F041F7
:100950001F46044603260168072A01F4006004DBF1
:1009600008B116A505E016A503E008B115A500E03D
:1009700015A521F010002060A069C01EA0610FB174
:10098000401EA0612046FFF793FC4FB1D4E901213E
:1009900038469047206A401C2062C01C206206E056
:1009A000206AFAE7D4E9012115F8010B9047761E79
:1009B000F8D22046FFF792FCBDE8F0814E414E0090
:1009C0006E616E00494E4600696E66002DE9F04783
:1009D000814616468AB0354878440DC88DE80D002A
:1009E00032487844801C03AC0DC884E80D0041F601
:1009F0009B300844372190FBF1F290FBF1F5A5F113
:100A0000800501FB12041B3C02D56442012000E07A
:100A10000020DFF898A080460027FA44AAF1BE0A19
:100A20000EE0E0070AD03246684607EB4701012393
:100A30000AEB810100F03FFB8DE8070064107F1C8A
:100A4000002CEED1194F7F44AE3F19E0E80715D0D6
:100A500007EB04100DF1180A90E80E008AE80E006A
:100A6000C068F04201D1981908903246012306A9C6
:100A700003A800F020FB03AB83E807006D10641CA3
:100A8000002DE3D14FF0010332466946B8F1000F63
:100A900003A802D000F0FAFA01E000F00CFBC9E96B
:100AA0000001C9F808200AB0BDE8F0873056000000
:100AB00000487047440500207546FFF7F9FFAE4631
:100AC00005006946534620F00700854618B020B55A
:100AD000FFF7C4FBBDE820404FF000064FF00007D1
:100AE0004FF000084FF0000B21F00701AC46ACE8D6
:100AF000C009ACE8C009ACE8C009ACE8C0098D4643
:100B0000704710B50446AFF300802046BDE81040A2
:100B1000FFF790BB4FF0013C50F8042B51F8043B19
:100B20009A4221D1A2EB0C03934313EACC1317D1C1
:100B300050F8042B51F8043B9A4215D1A2EB0C0358
:100B4000934313EACC130BD150F8042B51F8043B18
:100B50009A4209D1A2EB0C03934313EACC13DBD0E6
:100B60004FF00000704700BFD01A01BAB1FA81F10E
:100B700001F0180122FA01F0CB40C1F12001DBB2F3
:100B8000C0B2C01A2CFA01F3D11A914311EAC31171
:100B9000E6D170475FEA400C08BF91F0000F4FEAC2
:100BA0008C234FEAC12243EA51514FEA1C5018BF2F
:100BB00000F5F0404FEA300018BF41F000415FEA15
:100BC0006C5C00F02980BCF1FF3F08BF40F0804022
:100BD0007047130C06BF12044FF0100C4FF0000CBE
:100BE000130E04BF12020CF1080C130F04BF120104
:100BF0000CF1040C930F04BF92000CF1020CD30F04
:100C000004BF52000CF1010C11464FF00002A0F19C
:100C10001F00A0EB0C00704711F0004F08BF704799
:100C200031F000413FF4D5AF0B0C06BF09044FF083
:100C3000100C4FF0000C0B0E04BF09020CF1080C55
:100C40000B0F04BF09010CF1040C8B0F04BF8900CA
:100C50000CF1020CCB0F04BF49000CF1010CCCF1DC
:100C60002003A0EB0C0022FA03F302FA0CF241EA93
:100C7000030100F10100704720F07F4C80EA03007F
:100C800023F07F47ACEB070303F57C5300F00040F3
:100C900003F1FF032DE980494FEA154B09B44FEAF0
:100CA000144325EA0B4E24EA03480FF2042606EB10
:100CB000132749083E785FEA320203FB0667C7F54F
:100CC000000707FB06F64FEA54374FEAD64606F10F
:100CD000020607FB066CCCF1005C4FEA1C472CEACD
:100CE000074C07FB06F40CFB06F504EB15464FEA30
:100CF000961634BF00204FF000404FEAD13706FB74
:100D000007FC4FEA1C4C0CFB0BF7D21B03FB0CF748
:100D100061EB07010CFB0EF7B0EB074072EB1742DB
:100D20000CFB08F734BFA2EB0742B2EB074261EBC2
:100D300017414FEA0C444FEA910706FB07FC4FEAC4
:100D40001C4C0CFB0BF7B0EBC74072EB573203FBAC
:100D50000CF734BFA2EBC742B2EBC74261EB57318D
:100D60000CFB0EF7B0EBC70072EB57720CFB08F7E9
:100D700034BFA2EBC702B2EBC70261EB5771039F0E
:100D80004FEA816141EA921104EBCC044FEAD1377A
:100D90004FEA826206FB07FC42EA90124FEA80604B
:100DA0004FEA1C4C0CFB0BF7D21B03FB0CF761EB5F
:100DB00007010CFB0EF7B0EB074072EB17420CFB80
:100DC00008F734BFA2EB0742B2EB074261EB1741D1
:100DD0004FEA8C554FEA910704EB9C2406FB07FC75
:100DE0004FEA1C4C0CFB0BF7B0EBC74072EB5732D1
:100DF00003FB0CF734BFA2EBC742B2EBC74261EB77
:100E000057310CFB0EF7B0EBC70072EB57720CFBBF
:100E100008F734BFA2EBC702B2EBC70261EB577110
:100E200015EB4C254FEA816141EA92114FEA82624B
:100E30004FEAD13742EA901206FB07FC44F1000466
:100E40004FEA80604FEA1C4C0CFB0BF7D21B03FBF4
:100E50000CF761EB07010CFB0EF7B0EB074072EBF0
:100E600017420CFB08F734BFA2EB0742B2EB074274
:100E700061EB174115EB1C154FEA813141EA9241B4
:100E80004FEA823242EA90424FEA80304FEA0C76D3
:100E900044F1000448EA03434EEA0B484FF0000EC9
:100EA000B2EB080C71EB030724BF624639464EEBE8
:100EB0000E0E4FF0000B0018524149414BEB0B0B4B
:100EC000B2EB080C71EB03077BF1000B24BF624609
:100ED00039464EEB0E0E4FF0000B001852414941BF
:100EE0004BEB0B0BB2EB080C71EB03077BF1000B28
:100EF00024BF624639464EEB0E0E51EA020718BF78
:100F000046F0010616EB0E7655F1000254F1000191
:100F100003D5BDE88901BDE80088BDE88901BDE8C9
:100F20000048B619524141EB0101A3F1010370479A
:100F300080807F7E7D7C7B7A797877767675747316
:100F4000727171706F6E6E6D6C6C6B6A6A696868D5
:100F5000676666656464636362616160605F5F5E6B
:100F60005E5D5D5C5C5B5B5A5A59595858575756E1
:100F70005655555554545353525252515150505046
:100F80004F4F4F4E4E4D4D4D4C4C4C4B4B4B4A4A98
:100F90004A494949484848474747474646464545DC
:100FA0004544444444434343434242424241414115
:100FB000002B9C4630D477002BD01CB54FEA370766
:100FC00003B44FF010004FF01001BAF1000F06D03B
:100FD000BCF1000FDCBF40F0080040F008014FF00A
:100FE00000000FBCBDE810400BF1010BBBF1010F7D
:100FF00008BF5FEA170722BF12F1010211F10101D8
:101000004FF0004143F1000300F0004043EA0000CC
:101010007047F9D35708D0E746EA064613F1400F68
:101020004FEA16461FDD13F1200FDFBF16430A46B5
:10103000002120335B42BED0C3F1200746EA0646BA
:1010400002FA07F74FEA164646EA0706C3F12007F9
:1010500022FA03F201FA07F721FA03F14FF0000335
:1010600042EA0702A7E746EA020646EA06464FEAD0
:10107000164646EA0106BCBF46EA0646360C4FF065
:1010800000034FF000024FF0000194E72DE9804C7F
:101090009A46934670B491E8380007C831EA400C8C
:1010A00048BF34EA430C03D5FFF7E6FDFFF780FFA6
:1010B000F0BCBDE8008C2DE9804C9A46934670B494
:1010C00091E8380007C810F0804F08BF13F0804F38
:1010D00003D100F005F8FFF76BFFF0BCBDE8008C12
:1010E00020F07F4780EA030023F07F4C07EB0C03DE
:1010F000A3F57C5300F00040A3F1FE0392F0000F33
:1011000000F0B38095F0000F00F077802DE90149E1
:101110004FEA11404FEA144621EA004800FB06FC62
:1011200024EA064708FB06F607FB08F800FB07F76A
:1011300018EB06484CEB164C4FEA124B18EB0748DD
:101140004FEA15464CEB174022EA0B4E0BFB06FC10
:1011500025EA06470EFB06F607FB0EFE0BFB07F71C
:101160001EEB064E4CEB164C4FF000061EEB074EE6
:101170004CEB174B18EB0B0840F1000018EB0E0B73
:1011800058EB000840F100008F1A4FF000013CBFFF
:10119000C943661B14BFB5EB040C00213CBFC94317
:1011A000F61B4FEA17444EEA8E0E27EA04454FEA33
:1011B0001C4704FB07622CEA074C05FB07F70CFBF6
:1011C00005F604FB0CFC16EB074642EB174216EB48
:1011D0000C4642EB1C421BEB060658EB0202414157
:1011E00046EA9E0601D5BDE80189B619524141EB98
:1011F0000101A3F10103BDE801894FEA14454FEA5B
:10120000114724EA054621EA074C05FB07F406FBD3
:1012100007F70CFB06F105FB0CFC11EB074144EB57
:1012200017444FEA124711EB0C4144EB1C4422EAED
:10123000074C05FB07F206FB07F70CFB06F605FB60
:101240000CFC16EB074642EB174216EB0C4642EB42
:101250001C456A1854F1000148BF7047B619524145
:1012600041EB0101A3F10103704795F0000F37D066
:101270004FEA11424FEA144721EA024624EA074C9A
:1012800002FB07F106FB07F70CFB06F402FB0CFC64
:1012900014EB074441EB17414FEA154714EB0C449C
:1012A00041EB1C4125EA074C02FB07F506FB07F75B
:1012B0000CFB06F602FB0CFC16EB074645EB17454C
:1012C00016EB0C4645EB1C42121951F1000148BFC8
:1012D0007047B619524141EB0101A3F10103704778
:1012E0004FEA14454FEA114724EA054621EA074C24
:1012F00005FB07F106FB07F70CFB06F24FF00006B3
:1013000005FB0CFC12EB074241EB174112EB0C42C0
:1013100051EB1C4148BF7047921841EB0101A3F10A
:101320000103704721B1826842F00102826003E04C
:10133000826822F001028260704700000021084AA2
:101340001168084A1140D0E900231A4383681A4300
:10135000C3681A431143044AC2F8041370470000DB
:1013600004230140E030FCFF002001400146C86C2E
:1013700080B270470246002013680B400BB1012079
:1013800000E000207047000030B502460020002336
:101390005068104C20400D790C6844EA0524204325
:1013A000506090680C4C2040D1E903542C438D6868
:1013B0002C434D7944EA450420439060D06A20F4E0
:1013C00070000C7D641EE4B2234340EA0350D062F7
:1013D00030BD0000FFFEFFFCFDF7FFC0F0B5044686
:1013E0000D4600200021092D11DDE068A5F10A0657
:1013F00006EB4607072606FA07F18843A5F10A0619
:1014000006EB460603FA06F10843E0600CE02069AB
:1014100005EB4507072606FA07F1884305EB450665
:1014200003FA06F108432061072A0FDA606B561EA3
:1014300006EB86071F2606FA07F18843561E06EBC1
:10144000860605FA06F10843606322E00D2A0FDAEA
:10145000206BD61F06EB86071F2606FA07F1884386
:10146000D61F06EB860605FA06F10843206310E056
:10147000E06AA2F10D0606EB86071F2606FA07F1C1
:101480008843A2F10D0606EB860605FA06F108432D
:10149000E062F0BD816841F08041816070470000EA
:1014A00000B58DB00121084601F074F80121080251
:1014B00001F090F801200B9003208DF830000020FF
:1014C0008DF833000BA9154800F0A0F8012108029F
:1014D00001F090F800214FF4807001F08BF80020AB
:1014E00007900A9009904FF48030089007A8FFF702
:1014F00025FF002001908DF808008DF80900039069
:10150000059001208DF8180001A90548FFF73CFF60
:1015100001210348FFF706FF0DB000BD00000240A7
:101520000020014000BFFEE700200CE0002106E0A3
:101530000022064B03EBC0135A544A1CD1B2802937
:10154000F6DB421CD0B20828F0DB704769000020AF
:101550002DE9F04304460D4616461F46E819C7B26A
:101560003019C6B2A9460FE0A04607E049464046FA
:1015700000F00EF808F1010000F0FF08B045F5DBBF
:1015800009F1010000F0FF09B945EDDBBDE8F0838A
:1015900070B504460D462946204600F091FF0F49DC
:1015A0004878C11700EB5171CB100C494878C1172E
:1015B00000EB5171C910A0EBC101CEB2084800EB9D
:1015C000C31006490978405C0121B14088430449B1
:1015D00001EBC311014A1278885470BD0500002048
:1015E000690000207047000010B54FF48051064894
:1015F00000F05DF8E12001F07BF84FF480510248E3
:1016000000F057F810BD000000000240F0B50A4697
:1016100000210023002400BF3DE0012505FA01F36D
:10162000156805EA03049C4234D105684F0003267F
:10163000BE40B543056015794E00B5400668354398
:1016400005601579012D02D01579022D16D1856816
:101650004F000326BE40B543856055794E00B54026
:10166000866835438560456801268E40B5434560F0
:10167000456896798E40B6B235434560C5684F00DF
:101680000326BE40B543C560D5794E00B540C66857
:101690003543C560491C1029BFD3F0BD0246002068
:1016A00013690B400BB1012000E00020704741831B
:1016B00070470183704700000148007870470000C0
:1016C0004600002010B504460723012221460848A1
:1016D000FFF784FE0648FFF7DDFE00BF0221044845
:1016E000FFF748FE0028F9D00148FFF73FFE10BD84
:1016F000002001402DE9F04107460C460025002658
:1017000008E03846FFF7DEFF0544052002F09AF8AE
:10171000701CC6B2A642F4DBB5FBF4F080B2BDE8A3
:10172000F08100BFFEE7000010B500200F490860FF
:101730000F48006820F440200D4908600846006802
:1017400040F48020086000200A49C1F8A402022069
:1017500002F094F8012005490860022002F08EF89A
:1017600000200449C1F8A00210BD0000A082404240
:1017700000040240008040421CB50121022000F01C
:1017800009FF4FF44070009001208DF80400002004
:101790008DF8060003208DF8050001208DF8070064
:1017A00069460548FFF732FF0120044908600449F3
:1017B000C1F8A4021CBD000000040240A082404207
:1017C0000080404210B500200F4908600F480068B3
:1017D00020F440200D4908600846006840F480204D
:1017E000086001200A49C1F8A402022002F046F86C
:1017F000012005490860022002F040F80020044959
:10180000C1F8A00210BD0000A082404200040240C6
:101810000080404270B5054600241648006820F458
:10182000402014490860084600680860002616E059
:10183000002011490860022002F020F801200F4921
:10184000C1F8A0026006040E0B487C38006808B19D
:10185000601CC4B2012002F011F8701CC6B2082E40
:10186000E6DB15B9FFF7AEFF01E0FFF75DFF2046AD
:1018700070BD000000040240A0824042008040424F
:1018800070B504461548006820F4402013490860EC
:101890000846006840F48020086000201049086075
:1018A000002517E0E0090E49091D08606006040ED6
:1018B000022001F0E3FF01200A49C1F8A002022042
:1018C00001F0DCFF002006490860022001F0D6FF8D
:1018D000681CC5B2082DE5DB70BD000000040240A5
:1018E000A08240420080404210B50F48006820F4BA
:1018F00040200D4908600846006840F480200860D8
:1019000001200A4908600A49C1F8A002042001F038
:10191000B5FF002005490860042001F0AFFF00205A
:101920000349C1F8A00210BD00040240A482404255
:101930000080404210B50F48006820F440200D4957
:1019400008600846006840F48020086000200A49CA
:1019500008600A49C1F8A402042001F08FFF0120A9
:10196000054908600549C1F8A402042001F086FF7A
:1019700010BD000000040240A082404200804042AE
:1019800010B500241348006820F440201149086075
:1019900008460068086001200F49086001F06EFFEA
:1019A00001200E49C1F8A00201F068FF07E0601CA9
:1019B000C4B2FA2C03DDFFF7BDFF012010BD0648BD
:1019C000803800680028F2D10349091F086000BF71
:1019D000F4E7000000040240A4824042008040423C
:1019E0001CB50121084600F0D5FD4FF400600090C1
:1019F00001208DF8040000208DF8060003208DF8EA
:101A0000050001208DF8070069463F48FFF7FEFDFD
:101A10000121084600F0BEFD4FF4805000900120E7
:101A20008DF8040000208DF8060003208DF80500D5
:101A300001208DF8070069463348FFF7E7FD0121D3
:101A4000042000F0A7FD4FF40070009001208DF8F5
:101A5000040000208DF8060003208DF80500012009
:101A60008DF8070069462948FFF7D0FD01210420C1
:101A700000F090FD8020009000208DF804000120EF
:101A80008DF8070003208DF8050069461F48FFF711
:101A9000BDFD0121084600F07DFD4FF480700090EF
:101AA00001208DF8040000208DF8060003208DF839
:101AB000050001208DF8070069461348FFF7A6FDD1
:101AC0000121042000F066FD4FF48070009000209A
:101AD0008DF8040001208DF8070003208DF8050023
:101AE00069460A48FFF792FD4FF400610648FFF788
:101AF000DEFD4FF480510448FFF7DBFD4FF4007129
:101B00000248FFF7D4FD1CBD00000240000802405F
:101B10001CB50121084600F03DFD4FF48070009097
:101B200001208DF8040000208DF8060003208DF8B8
:101B3000050001208DF8070069460448FFF766FD9F
:101B40004FF480710148FFF7B4FD1CBD0000024056
:101B500070B504460D4605F1B001C8B200F0E0FCD6
:101B6000102101EB141000F0DBFC04F00F0000F07A
:101B7000D7FC70BD2DE9FC4104460D4616466B4668
:101B800006223B21682000F0E1F80746BFB99DF826
:101B900001009DF8001040EA012000B220809DF86D
:101BA00003009DF8021040EA012000B228809DF851
:101BB00005009DF8041040EA012000B2308038464C
:101BC000BDE8FC812DE9FC4104460D4616466B46F6
:101BD00006224321682000F0B9F80746BFB99DF8F6
:101BE00001009DF8001040EA012000B220809DF81D
:101BF00003009DF8021040EA012000B228809DF801
:101C000005009DF8041040EA012000B230803846FB
:101C1000BDE8FC8110B52DED088B82B001AB02222E
:101C20004121682000F092F89DF805009DF804100D
:101C300040EA012004B2204602F08EFE41EC1B0B6C
:101C40009FED100B53EC102B02F02EFD41EC1A0B04
:101C50009FED0E0B53EC102B02F07EFC41EC190BA8
:101C600002F048FC08EE100A9FED0A0A28EE000A6E
:101C7000BDEEC00A10EE100A00B202B0BDEC088B37
:101C800010BD00000000000000407540A4703D0A37
:101C9000D74342400000C84210B5FFF76DFD8021D8
:101CA0006B2000F0D7F8642001F0CCFD00216B2000
:101CB00000F0D0F8032000F08BF8002000F080F84E
:101CC000322000F0AAF80021382000F0C3F80021EB
:101CD0006A2000F0BFF80021232000F0BBF880212B
:101CE000372000F0B7F8752000F013F80446682C90
:101CF0000BD101216B2000F0ADF800216C2000F029
:101D0000A9F8322000F089F801E0012010BD002080
:101D1000FCE770B50446FFF7E7FDD020FFF7B0FD04
:101D2000FFF72EFE2046FFF7ABFDFFF729FEFFF77A
:101D3000DBFDD120FFF7A4FDFFF722FE0020FFF717
:101D400069FD0546FFF7F6FD284670BD2DE9F04117
:101D500006460F4614461D46FFF7C6FD002141EA20
:101D60004601C8B2FFF78CFDFFF70AFE20B1FFF76E
:101D7000E1FD0120BDE8F0813846FFF781FDFFF766
:101D8000FFFDFFF7B1FD012101EB4601C8B2FFF7EE
:101D900077FDFFF7F5FD0DE0012C04D10020FFF7E2
:101DA00039FD287003E00120FFF734FD2870601E24
:101DB000C4B26D1C002CEFD1FFF7BCFD0020D9E7A9
:101DC00010B50446E006010E1C2000F043F810BDDB
:101DD00010B50446E006010E1B2000F03BF810BDD4
:101DE00070B504460025BC2C01DB012510E0622CF7
:101DF00001DB02250CE02A2C01DB032508E0142C72
:101E000001DB042504E00A2C01DB052500E00625A2
:101E100029461A2000F01EF870BD70B50446B4F5CE
:101E20007A7F01DD4FF47A74042C00DA04244FF435
:101E30007A7090FBF4F0401EC5B22946192000F0DC
:101E400009F80546264604EBD671C1F34F00FFF7AB
:101E5000C7FF70BD70B505460C46FFF745FDD020A5
:101E6000FFF70EFDFFF78CFD18B1FFF763FD0120B2
:101E700070BD2846FFF704FDFFF782FD2046FFF7FF
:101E8000FFFCFFF77DFD18B1FFF754FD0120EFE7E0
:101E9000FFF750FD0020EBE72DE9F04105460E4627
:101EA00017469846FFF720FD002141EA4501C8B2D8
:101EB000FFF7E6FCFFF764FD20B1FFF73BFD0120D3
:101EC000BDE8F0813046FFF7DBFCFFF759FD002449
:101ED0000CE018F80400FFF7D3FCFFF751FD18B130
:101EE000FFF728FD0120EBE7601CC4B2BC42F0DB29
:101EF000FFF720FD0020E3E700BFFEE7704708B5CD
:101F00004FF4C06000F064F919208DF80000002043
:101F10008DF8010001208DF802008DF8030068465D
:101F200000F01AF94FF4C06000F052F91C208DF84F
:101F3000000000208DF8010002208DF80200012031
:101F40008DF80300684600F007F94FF4C06000F018
:101F50003FF91D208DF8000000208DF801000320BE
:101F60008DF8020001208DF80300684600F0F4F8B7
:101F70004FF4C06000F02CF91E208DF80000002006
:101F80008DF8010004208DF8020001208DF8030077
:101F9000684600F0E1F84FF4C06000F019F9322013
:101FA0008DF8000000208DF8010005208DF802005A
:101FB00001208DF80300684600F0CEF84FF4C060B1
:101FC00000F006F936208DF8000000208DF80100A1
:101FD00006208DF8020001208DF80300684600F00D
:101FE000BBF84FF4C06000F0F3F837208DF8000024
:101FF00000208DF8010007208DF8020001208DF8E7
:102000000300684600F0A8F84FF4C06000F0E0F864
:102010002C208DF8000001208DF8010000208DF8A3
:10202000020001208DF80300684600F095F84FF497
:10203000A06000F0CDF825208DF8000000208DF87C
:1020400001008DF8020001208DF80300684600F0C1
:1020500083F84FF4A06000F0BBF826208DF8000054
:1020600000208DF8010001208DF802008DF803009A
:10207000684600F071F84FF4A06000F0A9F827203E
:102080008DF8000000208DF8010002208DF802007C
:1020900001208DF80300684600F05EF84FF4A06060
:1020A00000F096F834208DF8000000208DF8010033
:1020B00003208DF8020001208DF80300684600F02F
:1020C0004BF84FF4A06000F083F807208DF8000073
:1020D00001208DF8010000208DF8020001208DF80C
:1020E0000300684600F038F84FF4A06000F070F884
:1020F00006208DF8000001208DF801008DF8020007
:102100008DF80300684600F027F84FF4A06000F057
:102110005FF817208DF8000001208DF801000220E3
:102120008DF8020001208DF80300684600F014F8D5
:102130004FF4A06000F04CF828208DF8000001203A
:102140008DF8010003208DF8020001208DF80300B6
:10215000684600F001F808BD70B5002100230F2289
:10216000C4781CB3174C246804F4E064C4F5E0643C
:10217000C4F30721C1F10404E3B20A4144789C404E
:10218000E1B28478144021430C07210E0E4C0578EF
:102190006155047804F01F050124AC4005786D11E9
:1021A000AD0005F1E025C5F8004109E0047804F030
:1021B0001F050124AC40054D0678761145F82640F0
:1021C00070BD00000CED00E000E400E080E100E004
:1021D00002490143024A1160704700000000FA05FD
:1021E0000CED00E010B5FFF79FF900F063FA10BDA9
:1021F0002DE9F04781468A4615461E465146484617
:1022000000F05EF910480078104908700E484078D8
:10221000487025B1304600F095FD044603E0304695
:1022200000F0C0FD04464FF0080804EB44004006EF
:10223000070E064A5178107843463A4600F002FAF3
:102240002046BDE8F08700000500002007000020C0
:10225000F0B52DED048B83B004460D461646B0EE66
:10226000408A18EE100A02F061FE41EC190B53ECA3
:10227000192B0CA16846FEF705F8074607EB470047
:102280004006020E082329462046FFF761F96B46F7
:10229000324629462046FFF7ABFF03B0BDEC048B66
:1022A000F0BD00002530352E3266000010B500F07C
:1022B00077F84FF480413948FFF7FBF90A2001F025
:1022C000C1FA4FF480413548FFF7F1F90A2001F0D7
:1022D000B9FA4FF480413148FFF7EBF90A2001F0D9
:1022E000B1FAAE2000F01CF9022000F019F910201C
:1022F00000F016F9402000F013F9812000F010F9E9
:10230000CF2000F00DF9A12000F00AF9C82000F05C
:1023100007F9A62000F004F9A82000F001F93F20F9
:1023200000F0FEF8812000F0FBF8FF2000F0F8F844
:10233000D32000F0F5F8002000F0F2F8D52000F0EE
:10234000EFF8802000F0ECF8D92000F0E9F8F12057
:1023500000F0E6F8DA2000F0E3F8122000F0E0F8F0
:10236000DB2000F0DDF8402000F0DAF8202000F05B
:10237000D7F8022000F0D4F88D2000F0D1F8142016
:1023800000F0CEF8A42000F0CBF8A62000F0C8F8AA
:10239000AF2000F0C5F8FFF725FF10BD0004024094
:1023A0001CB50121022000F0F5F80121022000F007
:1023B000F1F80121022000F0EDF80121022000F0E7
:1023C000E9F80121042000F0E5F84FF48050009076
:1023D00001208DF8040000208DF8060003208DF800
:1023E000050001208DF8070069463348FFF70EF914
:1023F0004FF480513048FFF75CF94FF400500090E3
:1024000001208DF8040000208DF8060003208DF8CF
:10241000050001208DF8070069462748FFF7F6F808
:102420004FF400512448FFF744F94FF480400090E6
:1024300001208DF8040000208DF8060003208DF89F
:10244000050001208DF8070069461B48FFF7DEF8FC
:102450004FF480411848FFF72CF94FF400400090EA
:1024600001208DF8040000208DF8060003208DF86F
:10247000050001208DF8070069460F48FFF7C6F8F0
:102480004FF400410C48FFF714F940200090012060
:102490008DF8040000208DF8060003208DF805005B
:1024A00001208DF8070069460448FFF7AFF8402186
:1024B0000248FFF7FEF81CBD00040240000802407D
:1024C000402900DB0021802800DB0020014A5170F8
:1024D000107070470500002070B50446002518E014
:1024E00040210D48FFF7E3F804F0800028B14FF4D5
:1024F00000410A48FFF7DDF804E04FF400410748C7
:10250000FFF7D5F840210448FFF7D3F86006040E22
:102510006D1C082DE4D370BD000802400004024089
:1025200010B504464FF480510848FFF7C0F84FF447
:1025300000510648FFF7BBF82046FFF7CDFF4FF4E8
:1025400080510248FFF7B5F810BD000000040240BA
:1025500010B504464FF480510848FFF7A8F84FF42F
:1025600000510648FFF7A5F82046FFF7B5FF4FF4E6
:1025700080510248FFF79DF810BD000000040240A2
:1025800010B504468120FFF7CBFF2046FFF7C8FFB8
:1025900010BD704729B1064A12680243044B1A6005
:1025A00004E0034A12688243014B1A60704700003E
:1025B0003038024029B1064A12680243044B1A60BF
:1025C00004E0034A12688243014B1A60704700001E
:1025D0004038024029B1064A12680243044B1A608F
:1025E00004E0034A12688243014B1A6070470000FE
:1025F0004438024029B1064A12680243044B1A606B
:1026000004E0034A12688243014B1A6070470000DD
:102610002438024070B504464FF480510848FFF753
:1026200046F8204600F064F8002000F061F8054606
:102630004FF480510248FFF73CF8284670BD000077
:10264000000002402DE9FC5F06460C4691469A4682
:102650002046E11704EB5171C1F3C70BB04604EB00
:102660000A01481EC11700EB5171C1F3C701019166
:1026700006EB0900401EC0B200905D4612E02946FC
:102680004046FFF765FA474607E0094901EBC511E7
:10269000C85DFFF75DFF781CC7B200988742F4DD84
:1026A000681CC5B201988542E9DDBDE8FC9F0000C9
:1026B0006900002070B500210846FFF749FA0024A0
:1026C00011E000250BE021462846FFF741FA0749B3
:1026D00001EBC411485DFFF73BFF681CC5B2802DBC
:1026E000F1DB601CC4B2082CEBDB70BD690000207C
:1026F00070B50446002520E004F0800028B14FF4B6
:1027000080711048FEF7D5FF04E04FF480710D484A
:10271000FEF7CDFF4FF400710B48FEF7CAFF6006CD
:10272000040E80210848FEF7B9FF04434FF40071FE
:102730000548FEF7BCFF681CC5B2082DDCDB20464F
:1027400070BD000000000240000802407047000019
:1027500010B5044644B94FF400610848FEF7A7FFDE
:1027600000200749087007E04FF400610348FEF7B6
:10277000A0FF01200249087010BD000000000240C7
:102780004600002010B504460020FFF7E1FF214677
:10279000052000F0E7FA10BD70B50446202C01DDDD
:1027A000202000E0204605460020FFF7D1FF294603
:1027B000112000F0D7FA70BD10B504460020FFF7D5
:1027C000C7FF44F00801062000F0CCFA10BD2DE947
:1027D000F04104460E461546052D01DD052000E0BA
:1027E00028460746052C01DD052000E020468046EE
:1027F00008F10A01C8B23A46314600F061FABDE874
:10280000F08100000CB50020019000903448006871
:1028100040F480303249086000BF3148006800F45D
:10282000003000900198401C0190009818B9019860
:10283000B0F5A04FF1D12A48006800F4003010B183
:102840000120009001E0002000900098012846D16E
:1028500023484030006840F08050214940310860F2
:102860002048006840F440401E4908601C48083079
:1028700000681B49083108600846006840F40040C1
:1028800008600846006840F4A05008601648091F18
:102890000860081F006840F08070091F086000BFD2
:1028A0000F48006800F000700028F9D040F2057071
:1028B0000E4908600A480830006820F00300084903
:1028C000083108600846006840F00200086000BF58
:1028D00003480830006800F00C000828F8D10CBD4F
:1028E000003802400070004008544007003C02409D
:1028F00070B504460D46052D01DD052000E0284693
:10290000064632462146102000F0DAF970BD10B5B7
:102910000020FFF77FFE044624F00104214600203A
:1029200000F020FA10BD042808D14FF0E021096919
:1029300041F004014FF0E022116107E04FF0E02187
:10294000096921F004014FF0E022116170477047DE
:1029500010B51548006840F470001349086013482A
:10296000006840F001001149086000200F4908315B
:1029700008600E4800680E4908400C4908600D4880
:10298000091D0860081F006820F48020091F0860E6
:10299000002006490C310860FFF734FF4FF000605B
:1029A00001498039086010BD88ED00E00038024020
:1029B000FFFFF6FE103000240EB50121880700F05D
:1029C00038F82320ADF800000020ADF80200ADF883
:1029D00008008DF80A0069464FF0804000F042F888
:1029E00001221146900700F033F800214FF080409B
:1029F00000F022F80EBD000010B50121880700F09C
:102A000018F807480088401C0549088008460088D7
:102A1000012804D10020088001200249087010BD5F
:102A2000480000204A00002041004FF08042D1625F
:102A30007047CA430282704721B1028842F0010206
:102A4000028004E002884FF6FE731A40028070474D
:102A50001AB183890B43838102E083898B4383818D
:102A60007047000000220288184B98420ED0184B85
:102A700098420BD0B0F1804F08D0164B984205D049
:102A8000154B984202D0154B984204D14FF68F73E4
:102A90001A404B881A43124B984207D0114B984268
:102AA00004D04FF6FF431A400B891A4302804B684B
:102AB000C3620B880385054B984202D0044B9842B1
:102AC00001D18B7A03860123838270470000014085
:102AD000000401400004004000080040000C0040D9
:102AE000001000400014004010B501210846FFF717
:102AF00061FDFFF761FF44F62060FFF795FF0121BC
:102B00008807FFF799FF10BD10B540F225511D4809
:102B100000F03EF810B31B4800F064F8C4B21A4845
:102B2000008800F40040C8B91748008800F48040CD
:102B300060B10A2C03D000201349088020E012481D
:102B4000008840F400401049088019E00D2C06D19F
:102B50000D48008840F480400B49088010E00A4886
:102B60000088C0F30D0009490C5407480088401C38
:102B70000549088008460088C72801DD0020088034
:102B800010BD000000100140540000207C04002013
:102B900070B50246002400230025002040F66A1686
:102BA000B14200D100BFC1F3421501F01F0301265D
:102BB00006FA03F3012D02D19689334006E0022D77
:102BC00002D1168A334001E0968A33400C12012666
:102BD00006FA04F41688344013B10CB1012000E069
:102BE000002070BD01468888C0F30800704700BF10
:102BF000FEE7000030B50146244C6378DC1703EB98
:102C00005474E010214C6378DC1703EB5474E41027
:102C1000A3EBC404E2B21E4B03EBC0131B4C24789D
:102C20001B5D01FA02F42343194C04EBC014174D49
:102C30002D78635592B1164C431C04EBC313134C0F
:102C400024781B5DC2F1080441FA04F42343104DBB
:102C5000441C05EBC4140D4D2D7863550B4B1B78AC
:102C6000802B0DDB0023094C237023465B7808334F
:102C7000637023465B78402B07DB0023637004E01E
:102C8000024B1B785B1C014C237030BD05000020FB
:102C90006900002030B5054600240BE0A5F12001B5
:102CA00001EB4101054A02EB4101085DFFF7A2FF7C
:102CB000601CC4B2062CF1DB30BD000026500008B9
:102CC0002DE9F04105460E461746FEF7F5FC804615
:102CD0000020FFF73DFD4FF480510D48FEF7E7FC63
:102CE00045F02000FFF704FD002404E0305DFFF70D
:102CF000FFFC601CC4B2BC42F8DB4FF480510448B6
:102D0000FEF7D7FC4046FFF723FDBDE8F081000049
:102D10000000024030B5054600240DE0A5F1200179
:102D200001EB4101064A02EB4101095DC943C8B20A
:102D3000FFF760FF601CC4B2062CEFDB30BD000063
:102D40002650000830B50446002505E014F8010BB4
:102D5000FFF7E0FF681CC5B220780028F6D12846AE
:102D600030BD000070B504460D46FEF7A5FC0646D2
:102D70000020FFF7EDFC4FF480510948FEF797FC67
:102D800044F02000FFF7B4FC2846FFF7B1FC4FF4F5
:102D900080510348FEF78DFC3046FFF7D9FC70BD2B
:102DA0000000024030B50446002505E014F8010B90
:102DB000FFF770FF681CC5B220780028F6D12846BE
:102DC00030BD03B401984100009850EAC12018BFFB
:102DD00004204A0D18BF40F0010040F2FF72B2EB30
:102DE000515F08BF40F00200012808BF052002B073
:102DF000704700000000000070B5C1482DED020BC7
:102E00002DED0E8B82B0119D25F000449FEDBEDBB1
:102E10009FEDBFEB84423EDBA4F140511098A1F13D
:102E20007F6108430FD0BC48844202DC28D110984F
:102E300030B39DED100B02B0BDEC0E8B02B0BDE8BF
:102E4000704000F069BC9DED100B53EC1D2B51EC54
:102E5000100B01F0ABFD9DED100B41EC180B53EC8A
:102E60001E2B51EC100B01F0A1FD53EC182B01F0BF
:102E700073FB41EC100B02B0BDEC0E8B02B070BDC9
:102E80000120FDF7E2FA02B0BDEC0E8B02B0BDE806
:102E9000704000F055BCA1489FEDA18B844256DAEA
:102EA0009DED100BB4F1795F0ADA51EC100BFFF7CE
:102EB00088FF042808BF00F053FC9DED100BDAE7F3
:102EC00053EC102B51EC100B01F070FD41EC190B81
:102ED00095480621B0EE490AF0EE690A784400F000
:102EE0009FFB53EC192B51EC100B01F05FFD41ECF3
:102EF0001A0B8E48B0EE490AF0EE690A04217844B4
:102F000000F08EFB53EC192B51EC100B01F04EFD31
:102F100053EC182B01F020FB41EC100B51EC1A0B79
:102F200053EC102B01F0C0FBCDE900019DED000B2F
:102F300053EC102B9DED100B51EC100B01F036FDF6
:102F40009DED101B53EC112B01F006FBD2E09DED23
:102F5000100B51EC100B00F0C3FD53EC182B01F0DB
:102F600023FE9FED730BCDE9000153EC102B9DED7B
:102F7000000B51EC100B01F019FD41EC190B6E48E0
:102F80000621B0EE490AF0EE690A784400F048FBE9
:102F900053EC192B51EC100B01F008FD41EC1B0B0D
:102FA0006648B0EE490AF0EE690A0421784400F060
:102FB00037FB53EC192B51EC100B01F0F7FC53ECE1
:102FC000182B01F0C9FA41EC1C0B51EC190B01F064
:102FD00037FA41EC180B5A489FED5BABA04222DC5C
:102FE00053EC1C2B51EC1B0B01F05EFBCDE90001F7
:102FF0009DED000B51EC180B53EC102B01F0D6FC9F
:1030000053EC182B01F0A8FA53EC1A2B01F0CEFC6C
:1030100053EC1D2B01F0A0FE53EC1E2B01F0C4FD60
:1030200041EC100B5FE08DED008B002000909DEDDA
:10303000000B51EC180B53EC102B01F08DFA9DEDA9
:10304000000B41EC1E0B53EC102B51EC100B01F05C
:10305000ADFC53EC192B01F0A7FD53EC1E2B01F036
:1030600023FB41EC190B53EC1C2B51EC1B0B01F017
:103070001BFB41EC1B0B53EC1A2B51EC190B01F011
:1030800095FC53EC1D2B01F08FFD41EC190B53EC1B
:103090001A2B51EC180B01F089FC53EC1B2B01F09F
:1030A00085FC53EC192B01F057FE9DED000B41EC14
:1030B000180B53EC1A2B51EC100B01F077FC9FED21
:1030C000249B53EC192B01F06FFD41EC100B51ECDC
:1030D000180B53EC102B01F03FFE53EC192B01F0B1
:1030E00063FD41EC100B002D3FF7C5AE51EC100B0A
:1030F00001F0F4F941EC100BBDE600000000000007
:103100000000F03F00000000075C143326A6913C4D
:10311000182D4454FB21F93F0000F07F0000E03FF0
:10312000000000000000F03FC02F0000CE2F000084
:10313000000000000000E03F122F0000202F0000E0
:103140003333EF3F000000000000000000000040AB
:10315000182D4454FB21E93F70B59B482DED020B1F
:103160002DED068B079D25F00044A04218DC974802
:10317000844202DC0AD1069840B19DED060BBDECFD
:10318000068B02B0BDE8704000F0C6BA002DCCBF7F
:103190009FED8F0B9FED900BBDEC068B02B070BDC9
:1031A0008F48A04215DD8F48A042D8BF4FF0FF34B2
:1031B00058DD9DED060B51EC100BFFF702FE0428C5
:1031C00008BF00F0CDFA9DED060BBDEC068B02B0FA
:1031D00070BD9DED060B51EC100B00F081FCCDE9AC
:1031E000060181489FED828BA0423CDD8248A042CF
:1031F0001FDD00249FED82AB9DED060B53EC1A2BD7
:1032000051EC100B01F0A8F99DED060B41EC190BE8
:1032100053EC1A2B51EC100B01F0C8FB53EC182B9C
:1032200001F09AFD53EC192B01F03EFACDE90601AD
:1032300049E09DED060B012453EC182B51EC100BCB
:1032400001F08AF99DED060B41EC190B53EC182B9C
:1032500051EC100B01F080FD53EC192B01F024FA16
:10326000CDE906012FE06848A0421FDD02249FED52
:10327000689B9DED060B53EC192B51EC100B01F0E4
:1032800095FB53EC182B01F067F99DED060B41EC13
:10329000180B53EC192B51EC100B01F05DFD53ECA6
:1032A000182B01F001FACDE906010CE09DED060BAB
:1032B000032453EC102B9FED580B51EC100B01F035
:1032C000F3F9CDE906019DED060B53EC102B51EC03
:1032D000100B01F06BFB41EC180B53EC182B01F0B9
:1032E00065FB41EC190B4E480621B0EE490AF0EEA1
:1032F000690A784400F094F953EC182B51EC100B48
:1033000001F054FB41EC180B4648B0EE490AF0EED0
:10331000690A0521784400F083F953EC192B51EC2C
:10332000100B01F043FB41EC100B51EC180B53EC6C
:10333000102B002C0EDA01F00FF99DED061B53EC5B
:10334000112B01F033FB9DED061B53EC112B01F00B
:103350002BFC35E001F000F99DED061B53EC112B21
:1033600001F024FB41EC100B2F48784400EBC40023
:1033700090ED001B51EC100B53EC112B01F0ECFC09
:103380009DED061B53EC112B01F0E6FC41EC100BFC
:103390002648784400EBC40090ED001B51EC100B64
:1033A00053EC112B01F000FC41EC100B002DA2BFDF
:1033B000BDEC068B02B070BD51EC100B01F08EF825
:1033C00041EC100B01E70000000010440000F07F0A
:1033D000182D4454FB21F93F182D4454FB21F9BF0B
:1033E0000000DC3F0000203E0000F33F0000000032
:1033F000000000000000F03F0000E63F0000000079
:1034000000000000000000400080034000000000B9
:10341000000000000000F83F000000000000F0BFC6
:10342000622C0000182C0000A22B00005A2B000078
:1034300070B56B4E2DED040B2DED028B82B0DDF8D7
:103440001CC0DDE905235C422CF000411C4341EA2D
:10345000D474049D22F00040B44205D86C422C4341
:1034600040EAD474B4420BD99DED061B9DED040BCC
:1034700002B0BDEC028B04B0BDE8704000F056B95C
:10348000ACF14054A4F17F641C430BD0022404EA45
:10349000AC7444EAD27405439FED538B9FED542BDB
:1034A00007D015E09DED040B51EC100B00F071F905
:1034B00042E0002C11BF012C9DED040B02B0BDECCD
:1034C000028B04BF04B070BD022C38D0032C3BD05B
:1034D0000B439FED491B9FED4A0B0AD0B14218D117
:1034E000B04209D121F0804120F080400791059041
:1034F0000FE0002A15DA10E0434B7B44002C08BF94
:1035000093ED000B0DD0012C10D0022C17D0032C02
:103510001AD0B0421DD1002A03DAB0EE410AF0EE13
:10352000610A02B0BDEC028B04B070BD93ED000BDC
:1035300051EC100B00F0D2FF41EC100BF1E7B0EEB4
:10354000480AF0EE680AECE7B0EE420AF0EE620AD2
:10355000E7E7401A00153C28C8BF8DED000B19DCC9
:10356000BCF1000FBEBF10F13C0F9FED290B8DED9C
:10357000000B0FDB9DED060B53EC102B9DED040BA8
:1035800051EC100B01F090F800F0AAFA00F001F9EC
:10359000CDE90001002C08BF9DED000BC1D0012C2E
:1035A00010D0022C9FED1C0B53EC102B9DED000B4B
:1035B00051EC100B0DD001F0CFFB53EC182B01F0A8
:1035C000CBFBB9E7019880F0004001909DED000B26
:1035D000A7E701F0C1FB53EC182B01F0E5FAABE7CC
:1035E0000000F07F00000000182D4454FB2109402A
:1035F000182D4454FB2109C0182D4454FB21F9BF58
:10360000182D4454FB21F93F8A2A000000000000D5
:103610000000000000000000075C143326A6A13C57
:1036200070B504462DED028B4D1E00EBC500B0EECB
:10363000408AF0EE608A90ED000B35F0060017D05E
:1036400053EC182B51EC100B01F0B0F941EC100BBE
:103650006D1E04EBC50090ED001B51EC100B53ECFC
:10366000112B00F079FF41EC100B35F00600E7D18B
:10367000022D36D0042D1CD0062D1CBFBDEC028BB4
:1036800070BD53EC182B51EC100B01F08FF994ED39
:103690000A1B53EC112B00F05FFF53EC182B01F0C9
:1036A00085F994ED081B53EC112B00F055FF41EC0C
:1036B000100B53EC182B51EC100B01F077F994ED33
:1036C000061B53EC112B00F047FF53EC182B01F0B5
:1036D0006DF994ED040B53EC102B00F03DFF41EC21
:1036E000100B53EC182B51EC100B01F05FF994ED1B
:1036F000021B53EC112B00F02FFF53EC182B01F0A1
:1037000055F994ED001B53EC112B00F025FFBDEC97
:10371000028B41EC100B70BD10B553EC102B51EC2B
:10372000100B00F019FF41EC100B10BD10B553EC5D
:10373000112B51EC100B00F00FFF41EC100B10BDE2
:103740009FED050B10B553EC102B51EC100B00F056
:10375000ABFF41EC100B10BD0000000000000000AA
:103760009FED050B10B553EC102B51EC100B01F035
:103770001DF941EC100B10BD00000000000000100E
:1037800030380A2801D2012070470020704700BF5E
:10379000704710B541EC100BFFF7DEFC51EC100B3D
:1037A00010BD00002DE9F0410446E07800F0C006AD
:1037B000E07800F03F05607800F0010098B1EF106C
:1037C0002846E91705EB5171C910A5EBC101491C49
:1037D00001F0FF080B48006820B10A484146026822
:1037E0003846904700BF607800F0080030B10548C7
:1037F000406818B1B011034A516888470020BDE8FD
:10380000F08100006C04002010B504466FF0040045
:10381000FFF789F8E11704EB5171C1F3C701074ABB
:1038200011701046007800EB4001C1EBC0104FF65C
:10383000FF7101EAC0000249088010BD4C00002061
:103840004E00002070B504464FF4077094FBF0F072
:10385000C6B24FF4077094FBF0F100FB114085B243
:1038600005E04FF4077000F02FF8701EC6B2002E6E
:10387000F7D115B1284600F027F870BD0146114A6E
:1038800012784A434FF0E0235A6100229A611A46A7
:10389000126942F001021A6100BF4FF0E022106984
:1038A00000F001021AB100F48032002AF5D04FF086
:1038B000E022126922F001024FF0E0231A61002297
:1038C0009A6170474C0000200146114A12884A4311
:1038D0004FF0E0235A6100229A611A46126942F0C1
:1038E00001021A6100BF4FF0E022106900F00102EE
:1038F0001AB100F48032002AF5D04FF0E0221269AC
:1039000022F001024FF0E0231A6100229A61704711
:103910004E0000202DE9F04F8DB007468846154631
:103920009946DDE9166B0024002030806B49887BC6
:103930005A4605A900F0C4FB18B1601E0DB0BDE8E1
:10394000F08F6648807A00F01400002867D09DF858
:10395000140000069DF8151040EA01409DF816106D
:1039600040EA01209DF81710084328609DF81800D0
:1039700000069DF8191040EA01409DF81A1040EA2F
:1039800001209DF81B10084368609DF81C0000068C
:103990009DF81D1040EA01409DF81E1040EA0120EC
:1039A0009DF81F100843A8609DF8200000069DF8B0
:1039B000211040EA01409DF8221040EA01209DF8C4
:1039C00023100843E86004F11000C4B22868001412
:1039D0000190686800140290A86800140390E868D9
:1039E0000014049001984043029901FB01000399DF
:1039F00001FB0100049901FB010ABAF1706F02DBBF
:103A0000BAF1885F05DD00F0BBFB00203080401E6E
:103A100094E7B6F9000040F48070308000BF2F4872
:103A2000807A00F0400020B305A9601C085C095DA5
:103A300040EA012000B2A8F8000005A9E01C095CDA
:103A400005AAA01C105C41EA002000B2A8F8020000
:103A500005A9601D095C201D105C41EA002000B230
:103A6000A8F80400A01DC4B2B6F9000040F0080098
:103A700030801A48408900F4C07008B305A9601C62
:103A8000085C095D40EA012000B2388005A9E01C0D
:103A9000095C05AAA01C105C41EA002000B27880F5
:103AA00005A9601D095C201D105C41EA002000B2E0
:103AB000B880A01DC4B2B6F9000040F0700030809C
:103AC0000648807A00F0030018B105A90819FFF72D
:103AD00069FE484600F0E6F900202FE76C0400205C
:103AE00082B0CDE9000121F0004001909DED000B76
:103AF00002B051EC100B70472DE9F0432DED108B07
:103B000085B007460C461646002523E007EB8500E6
:103B1000D0ED000A9FED820AB2EE041A00EE810A8F
:103B2000BDEEC00A10EE100A01A941F8250001A857
:103B300050F82500002802DA002041F8250001A8ED
:103B400050F82500B0F5E16F03DDB42001A941F87C
:103B500025006D1C032DD9DB97ED030AF2EE040A54
:103B600020EE200ABDEEC00A8DED040A00251CE0FF
:103B7000A80000F1010813E001A850F825000A216F
:103B800090FBF1F201FB120904F8089001A850F82B
:103B9000250090FBF1F001A941F8250008F101088A
:103BA000A800001D4045E7DA6D1C042DE0DB2179FB
:103BB000642211FB02F000F0CFFE41EC190BE1781A
:103BC00001EB8101480000F0C7FE41EC1B0BA0781F
:103BD00000F0D9FE41EC1D0B607800F0D4FE9FEDA3
:103BE000510B53EC102B00F0E1FE53EC1D2B00F0B9
:103BF000B3FC53EC1B2B00F0AFFC53EC192B00F083
:103C0000ABFC00F077FC3060217A642211FB02F0FB
:103C100000F0A2FE41EC190BE17901EB81014800B3
:103C200000F09AFE41EC1B0BA07900F0ACFE41ECD9
:103C30001D0B607900F0A7FE9FED3A0B53EC102BA3
:103C400000F0B4FE53EC1D2B00F086FC53EC1B2B54
:103C500000F082FC53EC192B00F07EFC00F04AFCD3
:103C60007060217B642211FB02F000F075FE41ECD4
:103C7000190BE17A01EB8101480000F06DFE41EC87
:103C80001B0BA07A00F07FFE41EC1D0B607A00F068
:103C90007AFE9FED240B53EC102B00F087FE53ECC3
:103CA0001D2B00F059FC53EC1B2B00F055FC53EC82
:103CB000192B00F051FC00F01DFCB060217C642247
:103CC00011FB02F000F048FE41EC190BE17B01EB27
:103CD0008101480000F040FE41EC1B0BA07B00F08E
:103CE00052FE41EC1D0B607B00F04DFE9FED0D0B75
:103CF00053EC102B00F05AFE53EC1D2B00F02CFC63
:103D000053EC1B2B00F028FC53EC192B00F024FC87
:103D100000F0F0FBF06005B0BDEC108BBDE8F08367
:103D2000000061449A9999999999B93F2DED048BB6
:103D300092B0FEF7E4F8A820FFF766FDFDF7E8FE75
:103D4000FEF7B4FA7F20FEF71BFC47A300221146C2
:103D50001046FEF74DFAFDF79FFF454800F022FBA5
:103D6000FEF7C2FEFDF79CFB42A300220A2110468B
:103D7000FEF73EFA41A3002214211046FEF738FA5E
:103D800040A300221E211046FEF732FA3FA3002274
:103D900028211046FEF72CFA65E014210020FDF7DB
:103DA000A9FC044607AA08A909A800F07DF858B99B
:103DB000FDF730FF04AA05A906A8FDF7DBFE01AA5E
:103DC00002A903A8FDF7FEFE9DED090A8DED0E0A7E
:103DD0009DED080A8DED0F0A9DED070A8DED100A85
:103DE000204600F0D0FD41EC190B9FED2A0B53EC5F
:103DF000102B00F0DBFD41EC180B00F07BFB119069
:103E00000AAA26490EA8FFF777FEDDED0A0AB0EEF2
:103E1000600A00220A212820FEF71AFADDED0B0ABB
:103E2000B0EE600A002214212820FEF711FADDED21
:103E30000C0AB0EE600A00221E212820FEF708FAC4
:103E4000DDED0D0AB0EE600A002228210846FEF7DB
:103E5000FFF91348007830B11121104800F0C0FA82
:103E600000200F49087098E75458446174613A0083
:103E7000000000206C696E6B313A00004C696E6B7B
:103E8000323A0000626173653A000000636C61774A
:103E90003A000000DBF97E6ABC74933F58000020B2
:103EA0004A0000207047000070B52DED0C8B8EB0DD
:103EB00004460D461646B7EE000AF0EE409A9FED16
:103EC0007C0AB0EE408A9FED7A0AF0EE408A9FEDC0
:103ED000780AB0EE409A07A808A90DAB03AACDE96D
:103EE000001009A90BA8FFF715FD20B101200EB0A5
:103EF000BDEC0C8B70BDBDF8200000F48070002874
:103F00007ED09DED030AB8EEC00ADFED6A0A80EEAE
:103F1000201AF0EE419A9DED040AB8EEC00ADFEDDA
:103F2000650A80EE201AB0EE418A9DED050AB8EED2
:103F3000C00ADFED600A80EE201AF0EE418A9DEDA6
:103F4000060AB8EEC00ADFED5B0A80EE201AB0EE7A
:103F5000419AB8EE000A28EE000A20EE090AF0EEB7
:103F6000000A69EEA00A00EEA80A10EE101A084630
:103F700000F0DCFF41EC1C0BB0EE4C0AF0EE6C0ADA
:103F8000FEF73AFFB0EE40BAF0EE60BA9FED4A0B92
:103F900053EC102B51EC1B0B00F008FD41EC1A0BFD
:103FA00000F0A8FA2060B8EE000A28EE000A20EE21
:103FB000080AF0EE000A68EEA00A00EEE80AF7EE42
:103FC000000A30EE200A10EE101A084600F0AEFF8C
:103FD00041EC1C0BB0EE000A28EE800A20EE090A24
:103FE000F0EE000A69EEA00A00EE880A10EE101A40
:103FF000084600F09BFF41EC1D0BB0EE4C1A00E0B0
:1040000052E0F0EE6C1AB0EE4D0AF0EE6D0AFFF7DA
:104010000FFAB0EE40BAF0EE60BA9FED270B53EC0A
:10402000102B51EC1B0B00F0C1FC41EC1A0B00F003
:1040300061FA286029EEA90A08EE080A08EEE80AE3
:1040400009EE490A10EE101A084600F06FFF41EC25
:104050001C0B28EE280A09EE890AF0EE000A20EE71
:10406000200A10EE101A084600F060FF41EC1D0B0C
:10407000B0EE4C1AF0EE6C1AB0EE4D0AF0EE6D0A8E
:10408000FFF7D6F9B0EE40BAF0EE60BA9FED0A0B3A
:1040900053EC102B51EC1B0B00F088FC41EC1A0B7D
:1040A00000F028FA306001E0022020E700201EE73F
:1040B000000000000000804E6666666666A64C4002
:1040C000F8B504460F4616462C4890F8240010B95F
:1040D0004FF0FF30F8BD2948807A10B94FF0FF301B
:1040E000F8E7264A1268917A244A526810786B469B
:1040F0000222FDF72BFE10B14FF0FF30EAE79DF8EA
:1041000001009DF8001040EA0125A54203DA0020D5
:104110003070401EDEE7194840684088B5EB600FFC
:1041200017DD164A1268517C144A526810786B46A3
:104130000122FDF70BFE10B14FF0FF30CAE79DF8EA
:10414000000000F0100020B100F01AF86FF001003C
:10415000C0E7E2B2094B1B68D97A084B5B68187854
:104160003B46FDF7F3FD10B14FF0FF30B2E795FB92
:10417000F4F0401E30700020ACE700000C0000207E
:1041800008B57048807A10B94FF0FF3008BD0020A4
:1041900000906C4A1268D17B6A4A526810786B466C
:1041A0000122FDF779FE10B14FF0FF30EEE7654ACE
:1041B00012685179634A526810786B460122FDF704
:1041C0006BFE10B14FF0FF30E0E75E4A12681179E4
:1041D0005C4A526810786B460122FDF75DFE10B113
:1041E0004FF0FF30D2E7574890F82400002853D012
:1041F0000C200090534A12681179524A5268107884
:104200006B460122FDF748FE10B14FF0FF30BDE7CD
:104210003220FFF717FBC02000904A48807A00F058
:10422000010020B19DF8000040F020000090454AB8
:1042300012681179434A526810786B460122FDF7E3
:104240002BFE10B14FF0FF30A0E73E48407C10B18C
:104250000220009001E0002000903A4A1268D17BD1
:10426000384A526810786B460122FDF715FE10B1EE
:104270004FF0FF308AE700200090324A12685179EF
:10428000304A526810786B460122FDF705FE00287F
:1042900055D04FF0FF3079E704200090294A12688A
:1042A0001179284A526810786B460122FDF7F4FD17
:1042B00010B14FF0FF3069E72248807C20B92148D7
:1042C000807A00F0010010B94020009001E06020E9
:1042D00000901C4A126811791A4A526810786B468D
:1042E0000122FDF7D9FD10B14FF0FF304EE732202B
:1042F000FFF7A8FA1348407C10B10120009001E0BC
:10430000002000900F4A1268D17B0E4A5268107844
:104310006B460122FDF7C0FD10B14FF0FF3035E7CD
:10432000084A12685179074A52681078054B1033D1
:104330000122FDF7B1FD10B14FF0FF3026E700205C
:1043400024E700000C00002010B5FDF749FB002019
:10435000FEF7FEF905211248FEF7CAFA05221049B8
:104360000020FEF734FA00210120FEF7FBFC0121BA
:104370000220FEF7F7FC00210420FEF7F3FC0221E7
:104380000520FEF7EFFC0F210620FEF7EBFC1421C1
:104390001120FEF7E7FC0E210020FEF7E3FC10BD24
:1043A0004100002010B50446FFF7CEFF2E2100206B
:1043B000FEF7D8FC05212046FEF79AFA0522214691
:1043C0000020FEF704FA1120FEF7E6F94D20FEF773
:1043D000D9F90320FEF7F0F9FEF799FA10BD0000B5
:1043E0002DE9F04105460E460024202E01DD202057
:1043F00000E0304607460020FEF7AAF9FDF7F4F882
:104400004FF480510D48FDF752F9A020FEF770F9E6
:10441000002404E0285DFEF76BF9601CC4B2BC42C6
:10442000F8DB4FF480510548FDF743F90120FEF712
:104430008FF9C820FFF722FABDE8F08100000240A2
:1044400000B52DED048B83B041EC190B00F0B8FBE7
:1044500041EC180B18EE100A18EE901A8DED008B37
:10446000002818BF0120084320F00040C0F17F6001
:1044700000F1E040C00F14D019EE101A19EE900AA6
:104480008DED009B002918BF0121084320F000405A
:10449000C0F17F6000F1E040C00F04BF0120FBF7D6
:1044A000D4FF51EC180B03B0BDEC048B00BD000031
:1044B00010B500290AD00878002807D005487844AC
:1044C000FCF728FB002801D0002010BD02487844EA
:1044D00010BD0000861B00007E1B000081F0004123
:1044E000704780F00040704721F00041704720F095
:1044F0000040704721F00042A2F16052B2F5801FE7
:1045000001F0004328BFD2F17F6C0BD95FEA001C99
:1045100043EAC20242EB507018BF704728BF20F038
:1045200001007047B2F5801FBCBF184670474FEAC4
:10453000410C1CF5001F02D2084600F06DBD70B59D
:1045400000F0DEFA00000089FFF7F6BF4FF00040F0
:10455000A0F580007047000010B591EA030F48BF36
:1045600083F0004300F10084841A71EB030C05D240
:10457000121943EB0C03001B61EB0C01DFF824E183
:104580004FEA1154A4EB135C1EEA430F18BF9EEAD6
:10459000445F73D023EA0E03DCF1200E21EA0451BC
:1045A00043F4801332D322FA0CFE10EB0E0023FAF0
:1045B0000CFE41EB0E01CCF1200E03FA0EFE10EBC7
:1045C0000E0051F10001B1F5801FCCF1200E32D266
:1045D00001EB045112FA0EF2BDE8104058BF7047CB
:1045E000401C38BF5FEA420218BF7047002814BF62
:1045F00020F0010041F100014FEA410313F5001FD3
:1046000038BF7047A1F1C04100F0C8BA012A43EB9E
:104610000302ACF1200CDCF11F0E32BF4FF0000E94
:1046200023FA0CF310EB030041EB0451B4EB115FE0
:10463000D0D0A1EB045101F5801149085FEA3000A8
:1046400001EB04510ED350F1000038BF12FA0EFEF8
:1046500008D1BDE81040C9E7401C38BF5FEA4202FC
:10466000CAD1C3E7BDE810404FEA410313F5001F6C
:1046700038BF7047A1F1C04100F090BA9EEA445F94
:1046800008D011EA5E0FBDE8104004BF01F0004100
:1046900000207047BDE8104070B500F031FA00BF4F
:1046A00064FBBE3E0000E0FF2DE9C04130B4DFF8FE
:1046B000A0C23CEA111418BF3CEA131400F0EC80CD
:1046C00081EA03051CEA111444EAD57418BF1CEAF8
:1046D000131500F0C780A4EB05044FF0004545EA30
:1046E000C12145EAC32341EA505143EA525304F140
:1046F0007F74994204F500344FEAC0204FEAC22289
:1047000008BF904200F09C804FEA13650FF24016FC
:10471000765D4FEA134506FB05F7C7F1807706FB88
:1047200007F74FEAD737A7FB03687642C8F580380A
:10473000A7FB06CE38BFA8F1010807FB08E64FF03B
:10474000000EA6FB028CE6FB03CEDCF1000CCEF1E2
:10475000004E38BFAEF1010EA6FB0C584FF000071B
:104760004FF00005E6FB0E87A1FB08C6A0FB07CEB5
:1047700016EB0E0645F10005E1FB076515F1E04E6D
:104780007EBFA4F580345FEA46066D4116F18007CE
:1047900045F100054FEA17274FEA066647EA056725
:1047A000A6F1DE46B6F1805F4FEA15251FD93846DF
:1047B00024F0010C05EBC471BCF1FE6F01EB0C1190
:1047C00002D8F0BCBDE8008124425CBF01F5801E28
:1047D0009EEAC47F02D4F0BCBDE80081244238D4F4
:1047E000F0BCA1F1C041BDE8004100F0D7B94FEAEB
:1047F000D22242EA43524FEAD323A7FB02864FEA72
:10480000D02040EA415007FB03661EEA0E0F4FEA34
:10481000D12105FB026658BFA6EB0056B6EB005649
:104820004FEA520E4EEAC37E18EB0E0E56EB530EB5
:10483000BDD518EB02085E417F1C55F10005B6E7B7
:104840004FF480154FF000074FF000064FF00008BE
:10485000ADE7F0BC4FF0000001F1C04101F00041B4
:10486000BDE8008111EA0C1F0CEA131500D00CE022
:1048700013EA0C1F00F025804FF00000F0BC81EA25
:10488000030101F00041BDE80081F0BCBDE800413A
:1048900081EA030100F082B9F0BCBDE8004170B5C7
:1048A00000F02EF9097EFC3E00F007B881EA030112
:1048B0004FF0000001F00041704781EA030100F071
:1048C0006DB9F0BCBDE800414FF0000021497047D0
:1048D000FFFDFBF9F7F5F4F2F0EEEDEBE9E8E6E4C5
:1048E000E3E1E0DEDDDBDAD8D7D5D4D3D1D0CFCD4C
:1048F000CCCBCAC8C7C6C5C4C2C1C0BFBEBDBCBB85
:10490000BAB9B8B7B6B5B4B3B2B1B0AFAEADACAB7F
:10491000AAA9A8A8A7A6A5A4A3A3A2A1A09F9F9E59
:104920009D9C9C9B9A99999897979695959493930B
:10493000929191908F8F8E8E8D8C8C8B8B8A8989A2
:104940008888878786858584848383828281818025
:104950000000FF070000F87F10F0004248BF40420F
:10496000B0FA80F310FA03F10AD0C3F11D0303F586
:1049700080634FEA415002EB035202EBD1217047B2
:104980004FF000007047B0FA80F310FA03F10AD03C
:10499000C3F11D0303F580634FEA41504FEA035210
:1049A00002EBD12170474FF000007047DFF848C19B
:1049B00070B51CEA111E1EBF1CEA13159EEA0C0FEF
:1049C00095EA0C0F00F06F8081EA030423EA4C1390
:1049D0004EEAD47E21EA4C1141F4801143F4801355
:1049E000AE44A1FB024CA0FB0365AEF17F7E3619FD
:1049F00055EB0C05A1FB034C4CF10003A0FB021C82
:104A000016EB0C06654153F10003094218BF46F04E
:104A1000010613F4007F0BD14FEA03314FEA053052
:104A2000340341EA155140EA16506FF003020AE0E0
:104A30004FEAC3214FEAC520F40241EA555140EA4A
:104A400056506FF0020202EB2E4201EB025585EA4E
:104A5000CE710AD05FEA440C18BF24F0004450F134
:104A6000000041F1000120EAD47040F2FE7C624572
:104A700000D270BDA84214BF4FF080444FF04044B4
:104A8000002E08BF0024BEF1806FA8BFA1F1C04175
:104A9000BDE8704080F282804FF0000001F1C0411B
:104AA00001F0004170479EEA0C0F0CEA131518BF85
:104AB00095EA0C0F06D04FF0000081EA030E0EF0CD
:104AC000004170BD00F01CF88900013E00F007B8FD
:104AD00000F009B84FEA430C5FEA5C5C08D081EA59
:104AE000030100F05BB84FEA410C5FEA5C5CF6D171
:104AF0004FF00000014970470000FF070000F87FF9
:104B00000EF1020E2EF0030E5EF8046B364205D451
:104B1000012A43EB030515F5001F12D8012841EBCC
:104B2000010C1CF5001F0CD80ED14FEAD17C15F5F5
:104B3000001F0CEB4C0C0CF1020C08BF4CEBD37CAF
:104B400004E04FF0080C01E04FEAD37C0CEB4C057D
:104B500026FA05F606F00706B6F1040C06D20EEBAF
:104B6000860CBDE870404CF0010C6047DFE80CF0AB
:104B7000090B02024FF000414FF00000A1F50021A7
:104B800070BD19461046012851EB010418BFD4F539
:104B9000001484BF002001F0004170BD0808A0F59A
:104BA00000114FEA3101704791EA030F10B581F00F
:104BB00000413FF5D9AC83F0004300F0D5B80000C8
:104BC0002DE9F04101F5801CBCF5001FC0F2A98061
:104BD0004FEA115C21EA0C510CF1FD0C41F48011FB
:104BE0005FEA5C0C0CF5C07C01D34000494130A465
:104BF000890241EA905187028E0E0A0CA45D04FBE3
:104C000004F602FB06F6C6F14046A4FB0662F60D6A
:104C100046EA422606FB06F4A4FB01235242C3F1F6
:104C2000404338BF5B1EA6FB02420024E6FB032480
:104C3000D20B42EA4446A6FB0623A1FB02E2A3FBF9
:104C400007E4E3FB61426442C2F1404E38BFAEF17B
:104C5000010EA6FB04234FF00002E6FB0E32A2FB7E
:104C600003463400E2FB6264A1FB06E6A4FB07E80E
:104C7000E4FB61687642C8F1405838BFA8F10108EA
:104C8000A2FB06E4A3FB08E5E2FB6854A1FB05E6F2
:104C9000A7FB04E8E1FB648618F1200556F1000645
:104CA000A809A8F11B08B10908F03F08B8F10A0FDC
:104CB00040EA86601CD901EB0C51BDE8F08100BFD1
:104CC000FCF5EEE8E2DDD8D3CFCBC7C3C0BDB9B6A3
:104CD000B4B1AEACA9A7A5A3A19F9D9B9A989695A8
:104CE0009392908F8D8C8B8988878685848382812F
:104CF000A0FB006800FB01F208EB4208B8EB872834
:104D000007D5341858EB0104D5D5401C51F10001EA
:104D1000D1E7341A78EB0104CDD4401E71F10001C3
:104D2000C9E75FEA4C0C5FEA9C5C0DD105D34FF0FC
:104D3000000001F00041BDE8F081BDE8F04170B530
:104D4000FFF7DEFE6DDBFFBEBDE8F0414FF0000077
:104D5000004970470000F87F10B591EA030F48BF83
:104D600083F000433FF500AC841A71EB030C07D2CB
:104D700012198CF0004C43EB0C03001B61EB0C018F
:104D8000DFF8A4E14FEA1154A4EB135C1EEA430FD1
:104D900018BF9EEA445F00F0B08023EA6E035242DF
:104DA00021EA0451C3EB6E0338BF5B1EDCF1200E19
:104DB00025D322FA0CFE10EB0E0043FA0CFE41EB59
:104DC0000E01CCF1200E03FA0EFE10EB0E0051F195
:104DD0000001CCF1200E29D412FA0EF201EB04519D
:104DE000BDE8104058BF7047401C1CBFB2F1004FD7
:104DF000704700280CBF491C20F00100704712EBDF
:104E0000020E43EB030218BF4FF0010E4EEA4202BE
:104E1000ACF1200CDCF11E0E54D943FA0CFE10EB61
:104E20000E0051F1FF31CCF11E0ED5D50EF1010E61
:104E300012FA0EFE404141EB010101EB445C5FEAD6
:104E40005C5C10D910EBDE7001EB045138BFBEF191
:104E5000004FBDE8104018BF704700280CBF491C28
:104E600020F00100704730D24FEAD42C11F5001128
:104E700024F400641BD0B1FA81F20B3AA41AA41EE8
:104E8000D2F12003914030FA03F31943904001EB33
:104E9000CC71002C01EB0451BDE81040A8BF704755
:104EA00001F1C0414FF0000001F000417047B0FA3D
:104EB00080F310FA03F100D110BDE41A173C480545
:104EC000C90AE4E701EB045110BD491001EB04519C
:104ED000BDE810404FEA300002E04FF0000170479B
:104EE0004A0008BF0042F8D0B2F5001F28BF704743
:104EF00001F000414FF0000070479EEA445F07D088
:104F000011EA5E0FBDE8104004BF00210020704789
:104F1000BDE8104070B5FFF7F3FD00BF40DFF63E7F
:104F200083F00041104670470000E0FF43004FEA65
:104F3000D30C4FEA3C0C43401FBF40070CF16051BB
:104F400013F0FE4F70471CF0006F03D100200CF0EF
:104F5000004170470CF0004343EA507010B540EA3E
:104F6000CC0000F00EF800BF000000924FEA0001F4
:104F7000FFF714BE4FF000414FF00000A1F50021F3
:104F800070470EF1020E2EF0030E5EF8044B244221
:104F900004D44FEA4102B2F17F4F11D84FEA4003E7
:104FA000B3F17F4F0CD80ED14FEAD07CB2F17F4FD6
:104FB0000CEB4C0C0CF1020C08BF4CEBD17C04E068
:104FC0004FF0080C01E04FEAD17C0CEB4C0324FAC3
:104FD00003F404F00704B4F1040C06D20EEB840CC5
:104FE000BDE810404CF0010C6047DFE80CF007080A
:104FF00002024FF00040A0F5800010BD08464200BC
:1050000018BFD2F1807288BF00F0004010BD4FF091
:105010004070E1EE100A7047FF2141EAD050C00510
:105020007047FBF7F1BA0000000000000000004FDD
:10503000000000000700070000147F147F14002404
:105040002A7F2A1200231308646200364955225031
:1050500000000503000000001C2241000000412266
:105060001C000014083E08140008083E0808000050
:1050700050300000000808080808000060600000C8
:10508000002010080402003E5149453E0000427FC6
:105090004000004261514946002141454B31001812
:1050A00014127F10002745454539003C4A494930D4
:1050B000000171090503003649494936000649498E
:1050C000291E000036360000000056360000000899
:1050D0001422410000141414141400004122140876
:1050E00000020151090600324979413E007E11114A
:1050F000117E007F4949493E003E41414122007FE7
:105100004141221C007F49494941007F09090901A9
:10511000003E4149497A007F0808087F0000417F2E
:105120004100002040413F01007F08142241007FE0
:1051300040404040007F0204027F007F0408107F4F
:10514000003E4141413E007F09090906003E4151B0
:10515000215E007F0919294600464949493100016D
:10516000017F0101003F4040403F001F2040201FC1
:10517000003F4038403F0063140814630003047884
:10518000040300615149454300007F41410000157F
:10519000167C1615000041417F0000040201020444
:1051A00000404040404000000102040000205454F0
:1051B0005478007F48444438003844444420003840
:1051C0004444487F00385454541800087E090102B2
:1051D000000C5252523E007F080404780000447DC7
:1051E0004000002040443D00007F102844000000A3
:1051F000417F4000007E020C027C007E0402027CA3
:10520000003844444438007C141414080008141472
:10521000187C007C080404080048545454200004FE
:105220003F444020003C4040207C001C2040201C8B
:10523000003C4030403C004428102844000C5050B2
:10524000503C004464544C44000000000000000046
:10525000000000000000000000001C7E7E1C00001A
:105260000000000303000000000E0E00000E0E0000
:1052700000000000000000000088FEFE88FEFE889E
:105280000000030300030300000C1E3363C6840008
:105290000001030E0E030100068FC96FB6988C0043
:1052A000000100030704070300ECFE125ECCC040BF
:1052B00000010302020103020000000E0E000000C4
:1052C00000000000000000000000F0FC0E020000E2
:1052D000000001070E0800000000020EFCF00000B4
:1052E0000000080E070100000020A8F870F8A820B0
:1052F0000000000000000000002020F8F82020003E
:10530000000000000000000000000000000000009D
:105310000000000B0F0700000020202020202000AC
:10532000000000000000000000000000000000007D
:105330000000000303030000000080E0781E060068
:1053400000060701000000000000FCFEC21AFEFC7F
:1053500000000103020203010008080CFEFE000029
:105360000000000003030000000C8EC2623E1C001F
:105370000003030202020200008C8E2222FEDC00E7
:10538000000103020203010000C0FEBE80F8F880A5
:105390000000000000030300003E3E2222E2C200A3
:1053A000000202020301000000F0F81E16F2E00005
:1053B0000001030202030100000282E27A1E0600DD
:1053C000000003030000000000DCFE3262FEDC008F
:1053D0000001030202030100003C7E42C2FE7C0089
:1053E000000002030300000000000018181800006D
:1053F000000000030303000000000018181800005C
:105400000000000B0F070000002070D88C0602007F
:1054100000000000010302000050505050505000A6
:1054200000000000000000000002068CD870200080
:105430000002030100000000000C0E62721E0C004E
:105440000000000303000000FCFE0262F292FEFC7A
:10545000010302020202020200F8FC4646FCF800C8
:10546000000303000003030000FEFE2222FEDC0016
:10547000000303020203010000FCFE02028E8C0006
:10548000000103020203010000FEFE0206FCF80018
:10549000000303020301000000FEFE22222202009C
:1054A000000303020202020000FEFE22222202008A
:1054B000000303000000000000FCFE0242CECC000E
:1054C000000103020203030000FEFE2020FEFE0096
:1054D0000003030000030300000002FEFE020000C0
:1054E00000000203030200000080800000FEFE00B6
:1054F000000103020203010000FEFE20F8DE0600A8
:10550000000303000003030000FEFE000000000093
:10551000000303020202020000FEFE087008FEFE05
:10552000000303000000030300FEFE183060FEFECF
:10553000000303000000030300FCFE0202FEFC0067
:10554000000103020203010000FEFE22223E1C00B5
:10555000000303000000000000FCFE0202FEFC004D
:1055600000010302060F090000FEFE2262FE9C00FD
:105570000003030000030300000C1E3262C6840017
:105580000001030202030100000202FEFE0202000B
:10559000000000030300000000FEFE0000FEFE000D
:1055A000000103020203010000FEFE0000FEFE00F7
:1055B0000000010303010000007EFE807080FE7E7B
:1055C00000000303000303000086CE3870CE86007F
:1055D0000003030000030300001E3EE0E03E1E0047
:1055E00000000003030000000082C262321E0E00B1
:1055F00000030302020202000000FEFE020200009D
:1056000000000F0F0000000000061E78E080000080
:10561000000000000107060000000202FEFE00007C
:10562000000000000F0F000000080C06060C080028
:10563000000000000000000000000000000000006A
:105640000202020202020202000002060E0800002C
:1056500000000000000000000080C84848F8F0008A
:10566000000103020203030000FEFE0808F8F00038
:10567000000303020203010000F0F80808181000FC
:10568000000103020203010000F0F80808FEFE001A
:10569000000103020203030000F0F848487870009C
:1056A00000010302020200000020FCFE2222220070
:1056B000000003030000000000F8FC0404FCFC00F0
:1056C00000080909090F070000FEFE0808F8F000AD
:1056D0000003030000030300000808FBFB000000B8
:1056E000000202030302020000000404FDFD0000AA
:1056F000000808080F07000000FEFE40E0B8180090
:105700000003030000030300000202FEFE0000008D
:10571000000202030302020000F8F808F808F8F09B
:10572000000303000100030300F8F80808F8F00084
:10573000000303000003030000F0F80808F8F0007D
:10574000000103020203010000F8F80808F8F00065
:10575000000F0F020203010000F0F80808F8F8003B
:1057600000010302020F0F0000F8F82010181800C3
:1057700000030300000000000030784848C888009B
:1057800000020202020301000008FEFE08080800F1
:10579000000001030202020000F8F80000F8F8001F
:1057A000000103020203030000F8F80000F8F8000B
:1057B000000001030301000000F8F800F000F8F811
:1057C00000000303000303000018B8E0E0B818006D
:1057D000000303000003030000FCFC0000FCFC00CD
:1057E0000808090D07030000000888C86838180079
:1057F00000030302020202000040E0BC1E0200009F
:10580000000000070F080000000000FEFE0000007E
:105810000000000F0F0000000000021EBCE040006E
:105820000000080F0700000060301030604060305A
:1058300000000000000000004040E0E05040404018
:105840000000000001000000000000000000000057
:105850000000000000000000000000F80000000050
:10586000000000333000000000100C06100C060091
:10587000000000000000000040C07840C0784000F8
:10588000043F04043F040400007088FC083000005A
:10589000001820FF211E0000F008F000E0180000B2
:1058A00000211C031E211E0000F00888700000006B
:1058B0001E2123241927211010160E0000000000BD
:1058C0000000000000000000000000E018040200DA
:1058D000000000071820400000020418E00000004B
:1058E0000040201807000000404080F08040400049
:1058F0000202010F01020200000000F0000000009F
:105900000101011F01010100000000000000000072
:1059100080B07000000000000000000000000000E7
:105920000001010101010101000000000000000070
:10593000003030000000000000000000806018040B
:10594000006018060100000000E010080810E000E8
:10595000000F102020100F00001010F800000000B1
:105960000020203F202000000070080808887000F8
:105970000030282422213000003008888848300078
:105980000018202020110E000000C02010F8000098
:1059900000070424243F240000F808888808080031
:1059A0000019212020110E0000E010888818000046
:1059B000000F112020110E0000380808C838080018
:1059C0000000003F00000000007088080888700098
:1059D000001C222121221C0000E010080810E00019
:1059E0000000312222110F00000000C0C0000000A2
:1059F00000000030300000000000008000000000C7
:105A000000008060000000000000804020100800BE
:105A10000001020408102000404040404040400087
:105A20000404040404040400000810204080000062
:105A30000020100804020100007048080808F00067
:105A40000000003036010000C030C828E810E00037
:105A50000718272423140B000000C038E0000000C2
:105A6000203C23020227382008F88888887000002C
:105A7000203F202020110E00C03008080808380000
:105A8000071820202010080008F808080810E00077
:105A9000203F202020100F0008F88888E808100018
:105AA000203F20202320180008F88888E8081000EC
:105AB000203F200003000000C03008080838000024
:105AC00007182020221E020008F808000008F80825
:105AD000203F210101213F20000808F808080000AC
